:100000000C9462000C948A000C948A000C948A0070
:100010000C948A000C948A000C948A000C948A0038
:100020000C948A000C948A000C948A000C948A0028
:100030000C948A000C948A000C948A000C948A0018
:100040000C94A7020C948A000C948A000C948A00E9
:100050000C948A000C948A000C948A000C948A00F8
:100060000C948A000C948A000000000024002700F1
:100070002A0000000000250028002B0000000000DE
:1000800023002600290004040404040404040202DA
:100090000202020203030303030301020408102007
:1000A0004080010204081020010204081020000012
:1000B0000008000201000003040700000000000027
:1000C0000000A50311241FBECFEFD8E0DEBFCDBFD7
:1000D00011E0A0E0B1E0E8E9F7E002C005900D9280
:1000E000A038B107D9F721E0A0E8B1E001C01D9226
:1000F000A13AB207E1F710E0C2E6D0E004C02197D0
:10010000FE010E94C403C136D107C9F70E94F10263
:100110000C94CA030C940000AF92BF92CF92DF926E
:10012000EF92FF920F931F93CF93DF936C017B01AC
:100130008B01040F151FEB015E01AE18BF08C0173D
:10014000D10759F06991D601ED91FC910190F081B0
:10015000E02DC6010995892B79F7C501DF91CF9173
:100160001F910F91FF90EF90DF90CF90BF90AF90D5
:100170000895833081F028F4813099F08230A9F01D
:1001800008958730A9F08830C9F08430B1F48091A7
:1001900080008F7D03C0809180008F7780938000E6
:1001A000089584B58F7784BD089584B58F7DFBCF86
:1001B0008091B0008F778093B00008958091B00057
:1001C0008F7DF9CF1F93CF93DF93282F30E0F90174
:1001D000E255FF4F8491F901E656FF4FD491F901A2
:1001E000EA57FF4FC491CC23A9F0162F81110E942A
:1001F000B900EC2FF0E0EE0FFF1FEE58FF4FA59176
:10020000B4918FB7F894EC91111108C0D095DE230A
:10021000DC938FBFDF91CF911F910895DE2BF8CF34
:10022000CF93DF9390E0FC01E656FF4F24918A576D
:100230009F4FFC0184918823D1F090E0880F991F93
:10024000FC01E859FF4FA591B491FC01EE58FF4F16
:10025000C591D49161110EC09FB7F8948C91E22F93
:10026000E0958E238C932881E223E8839FBFDF9162
:10027000CF9108958FB7F894EC91E22BEC938FBF58
:10028000F6CF089590E080E00895FC0101900020F1
:10029000E9F73197AF01481B590BBC0189E891E0A0
:1002A0000C948C00CF93DF93EC0160E08E810E9470
:1002B000E20061E08E810E94E20060E08E810E9497
:1002C000E2008BE891E00197F1F7DF91CF9108957B
:1002D000CF92DF92EF92FF920F931F93CF93DF9312
:1002E0006C017C0187E0E80EF11CD0E0C0E0062F35
:1002F00010E0B8010C2E02C0759567950A94E2F7DC
:100300006170F70181917F010E94E2002196C43063
:10031000D10579F7C601DF91CF911F910F91FF9021
:10032000EF90DF90CF900C945201CF92DF92EF923A
:10033000FF920F931F93CF93DF93EC01F62E642F60
:100340008C810E94E2008D818F3F19F060E00E9455
:10035000E2000F2D10E08F8584FF25C06E0187E03D
:10036000C80ED11CF12CE12CB8010E2C02C07595E1
:1003700067950A94E2F76170F60181916F010E941E
:10038000E200FFEFEF1AFF0A88E0E816F10461F7D8
:10039000CE01DF91CF911F910F91FF90EF90DF90F1
:1003A000CF900C945201B80184E0759567958A95B9
:1003B000E1F7CE010E9468016F2DCE01DF91CF9150
:1003C0001F910F91FF90EF90DF90CF900C946801F8
:1003D00040E0682F89E891E00C949501CF93DF937A
:1003E000613029F090919801986090939801609302
:1003F0009C0110929D0190E490939E0180939F0137
:10040000805C8093A00161E080918D010E941001C9
:1004100080918E018F3F19F061E00E94100161E030
:1004200080918F010E941001C9E8D1E09E012958F6
:1004300031408091980184FD0BC084E090E02196CA
:100440002817390744F461E08E810E941001EECF35
:1004500088E090E0F4CF8BE39DE00197F1F760E056
:1004600080918D010E94E20060E080918F010E94E6
:10047000E20080918E018F3F19F060E00E94E2005F
:100480008091980184FD39C063E089E891E00E9481
:100490006801CBE4D6E4CE010197F1F763E089E887
:1004A00091E00E9468012197F1F763E089E891E00B
:1004B0000E94680183E592E00197F1F762E089E824
:1004C00091E00E9468018091980180620E94E80199
:1004D00084E0809399018CE00E94E80181E00E9411
:1004E000E8018BE39FE10197F1F782E080939A01A5
:1004F00086E0DF91CF910C94E80180620E94E801D0
:100500008BE496E40197F1F78091980180620E9454
:10051000E80183E592E00197F1F78091980180620C
:100520000E94E801D0CF90919C01891710F08FEFC5
:10053000890FE82FF0E0E757FE4F848980680C941C
:10054000E80141E00E94950181E090E008951F924A
:100550000F920FB60F9211242F933F938F939F9377
:10056000AF93BF938091850190918601A0918701FF
:10057000B09188013091840123E0230F2D3758F585
:100580000196A11DB11D2093840180938501909354
:100590008601A0938701B09388018091800190919A
:1005A0008101A0918201B09183010196A11DB11D2D
:1005B0008093800190938101A0938201B093830185
:1005C000BF91AF919F918F913F912F910F900FBE4F
:1005D0000F901F90189526E8230F0296A11DB11DBC
:1005E000D2CF789484B5826084BD84B5816084BDA7
:1005F00085B5826085BD85B5816085BD80916E00C1
:10060000816080936E0010928100809181008260F1
:10061000809381008091810081608093810080912E
:1006200080008160809380008091B100846080931D
:10063000B1008091B00081608093B00080917A0019
:10064000846080937A0080917A00826080937A003F
:1006500080917A00816080937A0080917A0080682E
:1006600080937A001092C10060E082E00E94100145
:1006700061E087E00E94100161E086E00E941001C5
:1006800064E084E10E94EE0180E00E9493028CE02D
:1006900091E00E94450181E00E94930283E291E093
:1006A0000E94450183E00E94930285E491E00E944C
:1006B0004501C0EBD0E00CE910E098E8E92E90E0AD
:1006C000F92E20E0C22E20E0D22EFE018491F80106
:1006D000A490F701B490BB2039F181110E94B900B8
:1006E000EB2DF0E0EE0FFF1FE458FF4FA591B49102
:1006F0008C91A822C9F083E00E9493024EE150E061
:1007000061E671E089E891E00E948C0061E087E099
:100710000E94E20060E086E00E94E200C114D10481
:10072000A1F20E940000D1CF83E00E9493024BE12E
:1007300050E065E471E089E891E00E948C0060E09F
:1007400087E00E94E20061E0E6CFE9E8F1E0138291
:10075000128284E091E0918380838DE084838FEF27
:1007600085838CE086838BE087838AE0808789E0BD
:10077000818788E0828713861486158616861786F9
:1007800061E080E10C94EE01EE0FFF1F0590F49103
:08079000E02D0994F894FFCF5D
:1007980000000000A1028C004201410120205448C1
:1007A8004520425249474854204C49474854202044
:1007B8002020004E4F495345204D4F4E49544F522B
:1007C800494E472053595320202020202020202004
:1007D80020202020002020202020204E4F20534F72
:1007E800554E44202020202020202020202020207A
:1007F80000202020534F554E44204445544543542F
:1008080045442020202020202020202020202000B7
:00000001FF
